:020000040800F2
:1000000000800020A92B0008C9040008CB040008C8
:10001000CD040008CF040008D1040008000000004F
:10002000000000000000000000000000D3040008F1
:10003000D504000800000000D7040008D904000817
:10004000F92B0008F92B0008F92B0008F92B000800
:10005000F92B0008F92B0008F92B0008F92B0008F0
:10006000F92B0008F92B0008F92B0008F92B0008E0
:10007000F92B0008F92B0008F92B0008F92B0008D0
:10008000F92B000800000000F92B0008F92B0008EC
:10009000F92B0008F92B0008F92B0008F92B0008B0
:1000A000F92B0008F92B0008F92B0008F92B0008A0
:1000B000F92B0008F92B0008F92B0008F92B000890
:1000C000F92B0008F92B0008F92B0008F92B000880
:1000D000F92B0008F92B0008F92B0008F92B000870
:1000E000F92B0008F92B0008F92B0008F92B000860
:1000F000F92B0008F92B0008F92B0008000000007C
:1001000000000000F92B000800000000F92B000897
:10011000F92B000800000000F92B0008F92B00085B
:10012000F92B0008F92B0008F92B0008F92B00081F
:10013000F92B00080000000000000000F92B000867
:10014000F92B0008F92B0008000000000000000057
:10015000000000000000000000000000000000009F
:10016000000000000000000000000000F92B000863
:10017000F92B000800000000000000000000000053
:1001800000000000F92B0008000000000000000043
:10019000000000000000000000000000000000005F
:1001A0000000000000000000F92B0008F92B0008F7
:1001B000F92B0008F92B0008F92B000800000000BB
:1001C00000000000F92B0008000000000000000003
:0801D000F92B0008F92B0008CF
:1001D80070B50D4E0D4D761BB61006D000240134B7
:1001E80055F8043B9847A642F9D1094E094D761BAC
:1001F80002F000FDB61006D00024013455F8043B87
:100208009847A642F9D170BD7C2C00087C2C0008C8
:10021800802C00087C2C0008F0B4860746D0541EB9
:10022800002A3CD0CAB2034602E014F1FF3436D3A8
:1002380003F8012B9D07F8D1032C29D9CDB245EA43
:1002480005250F2C45EA054533D9A4F110063609D2
:1002580003F1200707EB061703F1100242E90455E2
:1002680042E902551032BA42F8D1721C14F00C0F50
:1002780003EB021204F00F0613D0331F23F003031D
:100288000433134442F8045B9342FBD106F00304A1
:100298002CB1C9B21C4403F8011B9C42FBD1F0BC31
:1002A800704734461346002CF3D1F8E7144603464A
:1002B800C2E71A462646E0E710B5054C237833B95D
:1002C800044B13B10448AFF300800123237010BD21
:1002D8002400002000000000FC2B000808B5034B98
:1002E8001BB103490348AFF3008008BD00000000BC
:1002F80028000020FC2B000830B58BB000240594A2
:1003080006940794089409941C4BDA6C42F0040292
:10031800DA64DA6C02F004020192019ADA6C42F0B3
:100328002002DA64DA6C02F020020292029ADA6C95
:1003380042F00202DA64DA6C02F002020392039AD3
:10034800DA6C42F00102DA64DB6C03F00103049317
:10035800049B0B4D22464FF48051284601F0D0F9FA
:100368004FF480530593012306930794089405A935
:10037800284601F0DBF80BB030BD00BF001002408A
:100388000004004872B6FEE708B51048104B036039
:100398004FF482734360002383604FF4E062C260CD
:1003A80002220261012242614FF400728261282216
:1003B800C2610362436283620722C26203634363CA
:1003C80001F0A5FB00B908BDFFF7DCFF44000020E1
:1003D8000038004010B594B03822002106A8FFF775
:1003E8001BFF0024019402940394049405944FF491
:1003F800007001F08BF9022306934FF48073099380
:1004080040230A930D9406A800F0DCFC68B90F237A
:10041800019301230293002103910491059101A8FE
:1004280000F088FF18B914B010BDFFF7ABFFFFF755
:10043800A9FF000030B5ADF23C4D00F075FCFFF7A8
:10044800C9FFFFF759FFFFF79FFF00F02FFC50B9D6
:100458000122184982A802F003F8174B187028B334
:100468000D2802D0FEE7FFF78DFF4FF400730093CD
:1004780002AB002207210F4802F020F80E4B18703B
:1004880000B1EFE70B4D00222946104601F0E8FFC6
:10049800094C20700122294682A801F0E1FF207052
:1004A8000028EED1054B01221A70EAE700200DF270
:1004B8003C4D30BD142C000840000020A80000204E
:1004C800FEE7FEE7FEE7FEE7FEE770477047704786
:1004D80008B500F039FC08BD00B583B00B4B1A6EA7
:1004E80042F001021A661A6E02F001020092009AA6
:1004F8009A6D42F080529A659B6D03F08053019388
:10050800019B01F089F903B05DF804FB001002407B
:1005180000B589B0002303930493059306930793CA
:100528000268134B9A4202D009B05DF804FB03F548
:10053800EC339A6D42F480429A659A6D02F48042D7
:100548000192019ADA6C42F00202DA64DB6C03F081
:1005580002030293029B4FF4604303930223049324
:100568000523079303A9034800F0E0FFDCE700BF79
:10057800003800400004004808B500F027F908BD1D
:1005880008B500F0D9F908BD08B500F0DFF908BDD5
:1005980008B500F021FA08BD08B500F075FA08BDE5
:1005A80000B587B08DF80F003223009301230DF1B9
:1005B80017020DF10F01044801F01DFB9DF817000B
:1005C80007B05DF804FB00BF4400002070B5064684
:1005D80000F0C6FB0546FF20FFF7E2FF0446FF28B0
:1005E80004D000F0BDFB401BB042F4D3FF2C14BF75
:1005F8000020012070BD70B506460D46002404E0B9
:10060800FF20FFF7CDFF30550134AC42F8D370BD61
:1006180070B506460D46002403E0305DFFF7C0FFC5
:100628000134AC42F9D370BD38B505460C464FF4D9
:10063800FA70FFF7CBFF00B938BD2046FFF7B0FFCF
:10064800FD2C01D10120F7E74FF400712846FFF790
:10065800DFFFFF20FFF7A4FFFF20FFF7A1FFFF2028
:10066800FFF79EFF00F01F00052801D10120E3E7F6
:100678000020E1E708B501224FF48051034801F05A
:100688003FF8FF20FFF78CFF08BD00BF00040048BB
:1006980010B500224FF48051084801F031F8FF20CE
:1006A800FFF77EFF4FF4FA70FFF790FF10B10124B7
:1006B800204610BD0446FFF7DDFFF9E700040048B7
:1006C80038B504460D4610F0800F2CD10C2C04D000
:1006D800FFF7D0FFFFF7DCFFB0B344F04000FFF7AF
:1006E8005FFF280EFFF75CFFC5F30740FFF758FFD1
:1006F800C5F30720FFF754FFE8B2FFF751FFDCB15D
:100708000120082C1AD0FFF74BFF0C2C18D00A2414
:10071800FF20FFF745FF10F0800F03D0631E13F092
:10072800FF04F5D138BD00F07F0400213720FFF722
:10073800C7FF0128CAD9F5E79520E2E78720E2E755
:10074800FF20FFF72DFFE2E7FF20EBE710B5044697
:1007580000F006FB024B1860024B1C6010BD00BF86
:10076800B0000020AC00002008B500F0F9FA054BF5
:100778001B68C01A044B1B6898422CBF002001203C
:1007880008BD00BFB0000020AC00002070B50546D1
:100798000E46C820FFF7DAFFFF20FFF701FF0446E7
:1007A800FF2803D1FFF7E0FF0028F5D1FE2C01D088
:1007B800002070BD31462846FFF71DFFFF20FFF7D8
:1007C800EFFEFF20FFF7ECFE0120F2E7002840F0E3
:1007D800AA80564B1B7813F0020F0BD170B582B06C
:1007E800534B1A68136823F0380343F0300313603F
:1007F8000A2408E04D4B1878C0B27047FF20FFF775
:10080800CFFE013CE4B2002CF8D100210846FFF7E6
:1008180057FF0546012817D0464B1C70FFF72AFFE3
:10082800002C7CD0424B1A68136823F0380343F03D
:10083800100313603D4A137803F0FE0313703B4B1B
:100848001878C0B202B070BD4FF47A70FFF77EFF1F
:100858004FF4D5710820FFF733FF01283CD1254616
:1008680008E0FF20FFF79CFE02AB2B4403F8040CC2
:100878000135EDB2032DF4D99DF80630012BCBD10B
:100888009DF80730AA2BC7D1FFF76EFF30B14FF0A4
:100898008041A920FFF714FF0028F5D1FFF764FF76
:1008A80008B90446B8E700213A20FFF709FF0546D2
:1008B80048B1B1E7FF20FFF773FE02AB2B4403F802
:1008C800040C0135EDB2032DF4D99DF8043013F072
:1008D800400F22D00C249FE70021A920FFF7F0FE4B
:1008E80001280ED92E46FFF73FFF28B100212846E0
:1008F800FFF7E6FE0028F6D1FFF736FF20B90446D9
:100908008AE70226A925EEE74FF400711020FFF7C9
:10091800D7FE002880D134467EE704247CE7034BC9
:1009280001221A708BE70120704700BF14000020D5
:1009380044000020A900002018B9034B1878C0B261
:1009480070470120704700BF14000020002839D1EB
:1009580038B50D461C46002B36D01D4B1B7813F0BE
:10096800010F33D11B4B1B7813F0080F00D1520233
:10097800012C18D011461220FFF7A2FE68B94FF4D7
:1009880000712846FFF702FF18B105F50075013C14
:10099800F5D100210C20FFF793FEFFF76BFE201E18
:1009A80018BF012038BD11461120FFF789FE002825
:1009B800F3D14FF400712846FFF7E8FE0028ECD089
:1009C8000024EAE7042070470420EBE70320E9E766
:1009D80014000020A9000020002848D170B50D4659
:1009E80016461C46002B44D0254B1B7813F0010FEC
:1009F80041D1234B1B7813F0040F3ED1214B1B78B8
:100A080013F0080F00D15602012C1BD013F0060F6B
:100A180026D131461920FFF753FE68B9FC21284634
:100A2800FFF702FE18B105F50075013CF6D1FD216E
:100A38000020FFF7F9FDC0B1FFF71CFE201E18BF0C
:100A4800012070BD31461820FFF73AFE0028F3D187
:100A5800FE212846FFF7E8FD0028EDD00024EBE74B
:100A680021469720FFF72CFED3E70124E4E7042072
:100A780070470420E5E70320E3E70220E1E700BF31
:100A880014000020A900002070B584B0002840F0B0
:100A980004810D461646834B1B7813F0010F40F076
:100AA800FE80042900F2ED80DFE811F005000C005B
:100AB800EB005400AF00FFF7EBFD002840F0E380A7
:100AC800012406E000210920FFF7FAFD044628B1B9
:100AD8002C46FFF7CFFD204604B070BD10216846B4
:100AE800FFF754FE002800F0D0809DF800309B09E5
:100AF800012B1FD09DF8052002F00F029DF80A3047
:100B080002EBD3129DF809305B0003F006031A4488
:100B18009DF808109DF807309B0003EB91139DF892
:100B28000610890201F440610B440133073A9340EF
:100B38003360CEE79DF809309DF8082003EB0223C7
:100B48009DF80720120402F47C12134401339B021F
:100B58003360BEE7544B1B7813F0040F20D00021FC
:100B68008D20FFF7ADFD08B10124B2E7FF20FFF7A4
:100B780017FD10216846FFF709FE78B90124A8E798
:100B8800FF20FFF70DFD013CE4B2002CF8D19DF8E1
:100B98000A301A091023934033609AE73024F4E7A7
:100BA80000210920FFF78CFD054608B1012490E7D4
:100BB80010216846FFF7EAFD002868D03A4B1C78F8
:100BC80014F0020411D09DF80A305B0003F07E0394
:100BD8009DF80B2003EBD21301339DF80D209209E9
:100BE800013A934033602C4673E79DF80A30C3F30B
:100BF80084029DF80B10CB0003F0180303EB51138C
:100C0800013302FB0333336063E7274B1B7813F090
:100C1800060F01D101245CE76A460B21FFF734FF78
:100C2800B8BB9DF800309B0904D19DF80A3013F039
:100C3800400F30D0316874681B4B1B7813F0080FD5
:100C480001D1490264022020FFF73AFD08B10124CE
:100C58003FE721462120FFF733FD08B1012438E79B
:100C680000212620FFF72CFD044608B1012430E7B7
:100C780047F23050FFF7AAFC00287FF42AAF01247E
:100C880027E7042425E72C4623E72C4621E70124FF
:100C98001FE701241DE701241BE704241BE70324A5
:100CA80019E700BF14000020A900002008B5064974
:100CB800064801F06FFF18B9054B01221A7008BDEC
:100CC8004FF0FF30FBE700BFB80000200000002015
:100CD800B400002000207047104B1B680BB901209E
:100CE800704710B504464FF47A70B0FBF3F30C4A22
:100CF8001068B0FBF3F000F0E1FD68B90F2C01D9E2
:100D080001200AE0002221464FF0FF3000F09EFD4E
:100D1800044B1C60002000E0012010BD18000020DA
:100D2800200000201C00002010B5032000F07CFDEE
:100D38000F20FFF7D1FF10B10124204610BD044653
:100D4800FFF7CAFBF9E70000034A1368034909687B
:100D58000B441360704700BFBC000020180000203F
:100D6800014B1868704700BFBC000020124BDA68BE
:100D780002F00302D868C0F30310431C032A11D001
:100D88000E48B0FBF3F00C4BDB68C3F3062303FB00
:100D980000F0094BDB68C3F3416301335B00B0FB30
:100DA800F3F070470648B0FBF3F0034BDB68C3F37E
:100DB800062303FB00F0ECE7001002400024F400D7
:100DC80000127A00002800F0548270B582B0044600
:100DD800036813F0010F37D0A44A936803F00C039B
:100DE800D26802F003020C2B23D0082B23D06368AF
:100DF800B3F5803F4ED0B3F5A02F51D09B4B1A6866
:100E080022F480321A601A6822F480221A60636819
:100E1800002B52D0FFF7A4FF0546944B1B6813F430
:100E2800003F11D1FFF79CFF401B6428F5D9032030
:100E380028E2032AD9D18D4B1B6813F4003F03D055
:100E48006368002B00F01782236813F0020F5DD04F
:100E5800864A936803F00C03D26802F003020C2B55
:100E68003AD0042B3AD0E368002B75D07F4A136838
:100E780043F480731360FFF773FF05467B4B1B68D1
:100E880013F4806F5FD1FFF76BFF401B0228F5D981
:100E98000320F7E1754A136843F480331360B6E71B
:100EA80003F18043A3F53C331A6842F480221A60A8
:100EB8001A6842F480321A60A9E7FFF751FF054625
:100EC8006A4B1B6813F4003FBED0FFF749FF401B75
:100ED8006428F5D90320D5E1022AC2D1634B1B68E7
:100EE80013F4806F03D0E368002B00F0C6815F4ADB
:100EF800536823F0FE43216943EA016353605C4B66
:100F08001868FFF7E9FE002840F0B981236813F05C
:100F1800080F4CD063699BB3544AD2F8943043F01D
:100F28000103C2F89430FFF71BFF05464F4BD3F877
:100F3800943013F0020F3AD1FFF712FF401B02283A
:100F4800F4D903209EE1494A536823F0FE432169FE
:100F580043EA01635360D9E7444A136823F4807372
:100F68001360FFF7FDFE0546404B1B6813F4806FC6
:100F7800CCD0FFF7F5FE401B0228F5D9032081E10C
:100F88003A4AD2F8943023F00103C2F89430FFF7BC
:100F9800E7FE0546354BD3F8943013F0020F06D020
:100FA800FFF7DEFE401B0228F4D903206AE123681C
:100FB80013F0040F00F081802C4B9B6D13F0805FC1
:100FC80036D12A4B9A6D42F080529A659B6D03F098
:100FD80080530193019B0125264B1B6813F4807FE6
:100FE80028D0A368012B39D0052B45D01F4BD3F847
:100FF800902022F00102C3F89020D3F8902022F02C
:101008000402C3F89020A368002B43D0FFF7A8FE82
:101018000646164BD3F8903013F0020F4CD1FFF769
:101028009FFE801B41F288339842F2D9032029E1C0
:101038000025D1E70F4A136843F480731360FFF764
:101048008FFE06460B4B1B6813F4807FC9D1FFF750
:1010580087FE801B0228F5D9032013E1034AD2F842
:10106800903043F00103C2F89030CCE70010024002
:101078001C000020007000408A4BD3F8902042F0FA
:101088000402C3F89020D3F8902042F00102C3F87C
:101098009020B8E7FFF764FE0646824BD3F89030FD
:1010A80013F0020F08D0FFF75BFE801B41F2883374
:1010B8009842F2D90320E5E0E5B9236813F0200F40
:1010C80035D0A369E3B1774AD2F8983043F00103E9
:1010D800C2F89830FFF744FE0546724BD3F89830B3
:1010E80013F0020F23D1FFF73BFE401B0228F4D96F
:1010F8000320C7E06B4A936D23F080539365DCE7C8
:10110800684AD2F8983023F00103C2F89830FFF704
:1011180027FE0546634BD3F8983013F0020F06D02C
:10112800FFF71EFE401B0228F4D90320AAE0E3695A
:10113800002B00F0A6805B4A926802F00C020C2A91
:1011480069D0022B1DD0574B1A6822F080721A60A2
:10115800DA6822F00302DA60DA6822F0887222F490
:101168008032DA60FFF7FCFD04464E4B1B6813F033
:10117800007F4ED0FFF7F4FD001B0228F5D90320AD
:1011880080E0484A136823F080731360FFF7E8FD96
:101198000546444B1B6813F0007F06D0FFF7E0FDBF
:1011A800401B0228F5D903206CE03E4AD3683E492B
:1011B8001940236A606A013843EA0013A06A43EAC7
:1011C8000023206B4008013843EA4053606B400815
:1011D800013843EA4063E06A43EAC0630B43D360E3
:1011E800136843F080731360D36843F08073D3604F
:1011F800FFF7B6FD04462B4B1B6813F0007F06D1A2
:10120800FFF7AEFD001B0228F5D903203AE00020C5
:1012180038E0002036E0012B36D0224BDB6803F0A3
:101228000301226A914231D103F0F002616A013967
:10123800B2EB011F2CD103F4FE42A16AB2EB012FDD
:1012480028D103F07842E16AB2EBC16F24D103F4EC
:10125800C001226B5208013AB1EB425F1ED103F084
:10126800C063626B5208013AB3EB426F18D1002099
:1012780008E001207047012004E0012002E001207D
:1012880000E0002002B070BD0120FBE70120F9E773
:101298000120F7E70120F5E70120F3E70120F1E756
:1012A8000120EFE7001002400C809F011E4B9B6855
:1012B80003F00C03042B33D01B4B9B6803F00C0387
:1012C800082B2FD0184B9B6803F00C030C2B01D074
:1012D80000207047144BDA6802F00302D868C0F3A4
:1012E8000310431C032A11D01048B0FBF3F00E4B37
:1012F800DB68C3F3062303FB00F00B4BDB68C3F387
:10130800416301335B00B0FBF3F070470848B0FB62
:10131800F3F0054BDB68C3F3062303FB00F0ECE7AF
:101328000248704702487047001002400024F40049
:1013380000127A00002800F0E680F8B50C46054651
:10134800744B1B6803F00F038B420BD2714A13686E
:1013580023F00F030B431360136803F00F038B4252
:1013680040F0D3802E6816F001065FD06B68032B1F
:101378002FD0022B4DD0684B1B6813F4806F00F000
:10138800C680FFF793FF654B98424DD9624A936830
:1013980023F0F00343F08003936080265E4A93684D
:1013A80023F0030369680B439360FFF7D9FC0746F2
:1013B800594B9B6803F00C036A68B3EB820F35D076
:1013C800FFF7CEFCC01B41F288339842F0D90320C6
:1013D80078E0514B1B6813F0007F01D1012071E0C8
:1013E800FFF7C4FC4D4B98421AD94B4B9B6813F03E
:1013F800F00F05D02E6816F00206CFD0AB688BB977
:10140800454A936823F0F00343F0800393608026F5
:10141800C4E7414B1B6813F4003FB2D1012051E0EF
:101428000026BBE70026B9E70026B7E72B6813F0CC
:10143800020F48D013F0040F04D0374A936843F4DE
:10144800E06393602B6813F0080F06D0324A936864
:1014580023F47C5343F4E06393602F4A936823F0AA
:10146800F003A9680B4393602A4B1B6803F00F0332
:10147800A34230D82B6813F0040F06D0264A93688D
:1014880023F4E063E9680B4393602B6813F0080FBB
:1014980007D0214A936823F46053296943EAC103BA
:1014A8009360FFF703FF1C4B9B68C3F303131C4AAD
:1014B800D35C03F01F03D8401A4B18601A4B186806
:1014C800FFF70AFCF8BD802ECED1134A936823F0AB
:1014D800F0039360C8E70F4A136823F00F03234310
:1014E8001360FFF73DFC06460A4B1B6803F00F0329
:1014F800A342BFD0FFF734FC801B41F288339842E7
:10150800F2D90320DEE7012070470120DAE7012045
:10151800D8E700BF002002400010024000B4C40415
:10152800182C0008200000201C000020F0B583B013
:10153800002362E085685E000324B44025EA0405C0
:10154800CC68B4402C438460446824EA0C0C4C6892
:10155800C4F300149C4044EA0C0444605EE0DD08D7
:10156800083550F8256003F007044FEA840C0F246F
:1015780004FA0CF426EA040E0C6904FA0CF444EAA2
:101588000E0440F8254060E0052400E0002404FA39
:101598000EF42C430CF1020C554D45F82C40554CDB
:1015A800A568D44325EA02064F6817F4801F01D0C6
:1015B80042EA05064F4DAE60ED6804EA05064F683D
:1015C80017F4001F01D042EA05064A4DEE606D6827
:1015D80004EA05064F6817F4003F01D042EA050601
:1015E800444D6E602D682C404E6816F4803F01D043
:1015F80042EA05043F4A146001330A6832FA03F4E8
:1016080074D04FF0010C0CFA03FC1CEA0202F3D070
:101618004C6804F00304013C012C8BD94C6804F09D
:101628000304032C0CD0C4685D004FF0030C0CFAC3
:1016380005FC24EA0C0C8C68AC4044EA0C04C46039
:101648004C6804F00304022C89D004684FEA430E66
:101658004FF0030C0CFA0EFC24EA0C0C4C6804F056
:10166800030404FA0EF444EA0C0404604C6814F40D
:10167800403FC1D0204C256E45F001052566246EFB
:1016880004F001040194019C4FEA930C0CF102054B
:10169800174C54F8255003F003044FEA840E0F2426
:1016A80004FA0EF425EA0405B0F1904F3FF46EAF4A
:1016B800124CA04212D004F58064A04210D004F568
:1016C8008064A0420ED004F58064A0420CD004F5DA
:1016D8008064A0423FF458AF062458E7012456E737
:1016E800022454E7032452E7042450E703B0F0BD72
:1016F80000000140000401400010024000040048BE
:101708000AB181617047816270470000002836D1B4
:101718003E4B1B6803F4C063B3F5806F08D03B4AA7
:10172800D2F8803023F48073C2F8803000207047EC
:10173800364AD2F8803023F48073C2F880301368B8
:1017480023F4C06343F400731360314B1B683222E7
:1017580002FB03F32F4AA2FB03239B0C013300E097
:10176800013B2A4A526912F4806F01D0002BF7D14D
:10177800264B5B6913F4806F44D100207047B0F5A5
:10178800007F08D0214A136823F4C06343F48063C0
:101798001360002070471D4B1B6803F4C063B3F54A
:1017A800806F08D0194AD2F8803043F48073C2F8A9
:1017B800803000207047154AD2F8803043F4807397
:1017C800C2F88030136823F4C06343F400731360D5
:1017D8000F4B1B68322202FB03F30E4AA2FB0323C2
:1017E8009B0C013300E0013B084A526912F4806FF8
:1017F80001D0002BF7D1054B5B6913F4806F03D13F
:101808000020704703207047032070470070004095
:101818002000002083DE1B43024A936843F4804380
:101828009360704700700040074AD36823F4E06370
:101838001B041B0C000200F4E060034343F0BF6389
:1018480043F40033D360704700ED00E000B5194B56
:10185800DB68C3F30223C3F1070CBCF1040F28BFF4
:101868004FF0040C03F1040EBEF1060F18D9033B28
:101878004FF0FF3E0EFA0CFC21EA0C0199400EFADB
:1018880003F322EA0303194300280BDB0901C9B259
:1018980000F1604000F5614080F800135DF804FB3A
:1018A8000023E5E700F00F000901C9B2024B195403
:1018B800F4E700BF00ED00E014ED00E00138B0F1FE
:1018C800807F0BD24FF0E0235861054AF02182F85F
:1018D80023100020986107221A6170470120704781
:1018E80000ED00E02DE9F04782B00546884617462E
:1018F8001E46FFF735FA0A9B1B1A03EB0609FFF78A
:101908002FFA82462B4B1B68C3F3CB3309FB03F337
:1019180001932B689C6838EA04030CBF4FF0010C54
:101928004FF0000CBC4540D0B6F1FF3FF1D0FFF7B7
:1019380017FAA0EB0A0048450AD2B9F1000F07D000
:10194800019A02B14A46019B013B01939146E0E7A7
:101958002A68536823F0E00353606B68B3F5827F0D
:101968000BD0AB6AB3F5005F14D0012385F85D3066
:10197800002385F85C30032018E0AB68B3F5004F0E
:1019880002D0B3F5806FECD12A68136823F04003C6
:101998001360E6E72A68136823F4005313602A6883
:1019A800136843F400531360DFE7002002B0BDE87A
:1019B800F08700BF200000202DE9F04782B00646DE
:1019C8000C4615461F4600238DF80330FFF7C8F96B
:1019D8000A9B1B1A03EB0708FFF7C2F98146D6F8E2
:1019E80000A0314B1B6803EB8303C3EBC3031B0D40
:1019F80008FB03F3019302E0B7F1FF3F12D133680C
:101A08009B6803EA040CAC454AD0B4F5C06FF3D127
:101A1800002DF1D19AF80C30DBB28DF803309DF827
:101A28000330E9E7FFF79CF9A0EB090040450AD22B
:101A3800B8F1000F07D0019A02B14246019B013B61
:101A480001939046DBE73268536823F0E003536064
:101A58007368B3F5827F0BD0B36AB3F5005F14D017
:101A6800012386F85D30002386F85C30032018E0F7
:101A7800B368B3F5004F02D0B3F5806FECD132688C
:101A8800136823F040031360E6E73268136823F411
:101A9800005313603268136843F400531360DFE7A0
:101AA800002002B0BDE8F0872000002070B582B0A9
:101AB80004460D46164600920B4600224FF4C051CC
:101AC800FFF77AFFB0B900962B4600228021204606
:101AD800FFF708FFA8B900962B4600224FF4C06113
:101AE8002046FFF769FF50B1236E43F020032366B9
:101AF800032004E0236E43F020032366032002B092
:101B080070BD236E43F0200323660320F7E7002807
:101B18006FD010B50446436A33B94368B3F5827F82
:101B280005D00023C36102E0002303614361002361
:101B3800A36294F85D30002B52D0022384F85D3004
:101B48002268136823F040031360E368B3F5E06F7D
:101B58004CD90022B3F5706F04D0B3F5E06F01D013
:101B68000023A362636803F48273A16801F404414B
:101B78000B43216901F002010B43616901F0010186
:101B88000B43A16901F400710B43E16901F03801CD
:101B98000B43216A01F080010B43A16A01F4005153
:101BA80020680B430360638B03F00403616A01F050
:101BB80010010B43616B01F008010B43E16801F46C
:101BC80070610B43216813434B602268D36923F487
:101BD8000063D36100202066012384F85D3010BDC6
:101BE80084F85C302046FEF793FCA6E74FF4805259
:101BF800B0E7012070472DE9F8431F46089D90F88B
:101C08005C30012B00F0648104468846914601232C
:101C180080F85C30FFF7A4F8064694F85D30DBB234
:101C28006268012B0AD0B2F5827F40F03881A26841
:101C3800002A40F03D81042B40F03C81B8F1000FB0
:101C480000F03A81B9F1000F00F03881002F00F060
:101C5800378194F85D30DBB2042B02D0052384F879
:101C68005D3000232366C4F84090A4F84670A4F8B9
:101C78004470C4F83880E787A787E3642365E3687E
:101C8800B3F5E06F01D8012F23D92268536823F4F4
:101C98008053536023681A6812F0400F03D11A6802
:101CA80042F040021A60E368B3F5E06F58D9636800
:101CB8000BB1012F0BD1A26B23681288DA60A36BDA
:101CC8000233A363E38F9BB2013B9BB2E3870127F7
:101CD80031E02268536843F480535360DAE7A26B1B
:101CE8001288DA60A36B0233A363E38F9BB2013BD4
:101CF8009BB2E387002723689A6812F0010F11D07E
:101D0800B4F8462092B26AB1DA68236C1A80236C60
:101D180002332364B4F846309BB2013B9BB2A4F86B
:101D280046300127FFF71CF8831BAB4203D3B5F1FC
:101D3800FF3F40F0C780E38F9BB22BB9B4F8463021
:101D48009BB2002B00F0A18023689A6812F0020F62
:101D5800D1D0E28F92B2002ACDD0002FCBD0BEE7EF
:101D680063680BB1012F0FD1E38F9BB2012B0DD903
:101D7800A26B23681288DA60A36B0233A363E38F34
:101D88009BB2023B9BB2E387012749E0A26B236821
:101D980012781A73A36B0133A363E38F9BB2013BE1
:101DA8009BB2E387F0E7E28F92B2012A0CD9A26BCB
:101DB8001288DA60A36B0233A363E38F9BB2023B02
:101DC8009BB2E38700273DE0A26B12781A73A36BDE
:101DD8000133A363E38F9BB2013B9BB2E3870027E8
:101DE80030E02268536843F48053536001270DE0C4
:101DF800226C1B7B1370236C01332364B4F84630C8
:101E08009BB2013B9BB2A4F846300127FEF7A8FF1E
:101E1800801BA84202D3B5F1FF3F55D1002D55D004
:101E2800E38F9BB223B9B4F846309BB2002B2CD079
:101E380023689A6812F0020F04D0E28F92B20AB1B6
:101E4800002FB0D123689A6812F0010FDED0B4F8E1
:101E5800462092B2002AD9D0B4F8462092B2012A7C
:101E6800C6D9DA68236C1A80236C02332364B4F869
:101E780046309BB2023B9BB2A4F84630B4F84630D9
:101E88009BB2012BADD90127C0E73246294620462F
:101E9800FFF70CFE20B120232366012000E002207A
:101EA800012384F85D30002384F85C30BDE8F883B2
:101EB8000220F5E70220F3E70120F1E70120EFE730
:101EC8000120EDE70320EBE70320E9E70320E7E73C
:101ED8000220EBE7034AD2F8883043F47003C2F8D3
:101EE8008830704700ED00E008B5044B03EB800232
:101EF800526852680344187A904708BDE8000020E9
:101F080008B5084B1B5C53B9064B01221A5403EB66
:101F18008002526812681844007A904708BD002071
:101F2800FCE700BFE800002038B5044C04EB80054E
:101F38006D68AD680444207AA84738BDE8000020E1
:101F480038B5044C04EB80056D68ED680444207ACC
:101F5800A84738BDE800002010B5044B03EB800407
:101F6800646824690344187AA04710BDE80000207B
:101F78004278007840EA02207047C278837843EAC2
:101F88000222437843EA0223007840EA032070479C
:101F98000170090A417070470170C1F3072343704B
:101FA800C1F307438370090EC1707047944632B17C
:101FB8000A78013102700130BCF1010CF8D1704788
:101FC80001700130013AFBD170470000002303E0A3
:101FD8005DF8044B70470133012B11D81A010949E8
:101FE8008A588242F7D110B41A0100248C50013368
:101FF800012BEDD81A0103498A588242F7D1F3E739
:10200800704700BFC40000200146006838B102468E
:102018001378202B06D93A2B04D00132F8E74FF079
:10202800FF3070473A2B01D00020704710B40346A8
:1020380013F8010B3038092808D89A4202D04FF01B
:10204800FF3005E038B901320A6001E04FF0FF3097
:102058005DF8044B70474FF0FF30F9E72DE9F04188
:10206800C57815B92846BDE8F0810446C76A00F16D
:10207800300801233A4641464078FFF761FF05469C
:10208800A0B90023E370236AFB1AA2699342E9D23C
:10209800A67808E0A3691F4401233A4641466078C0
:1020A800FFF74EFF013E012EF4D8DBE70125D9E703
:1020B80070B5C36A8B4202D10026304670BD044613
:1020C8000D46FFF7CBFF06460028F6D101232A4626
:1020D80004F130016078FFF727FF10B101264FF0B7
:1020E800FF35E562E9E7000038B504460023C37010
:1020F8004FF0FF33C362FFF7DBFF30BB054604F246
:102108002E20FFF735FF4AF6552398421FD194F841
:102118003030E92B07D0236B03F0FF130D4A9342AD
:1021280001D0022514E004F16600FFF726FF20F035
:102138007F40094B98420BD004F18200FFF71DFF46
:10214800064B984204D0022502E0042500E003254E
:10215800284638BDEB0090004641540046415433B0
:102168002DE9F04F85B00D46164600230B60FFF7AA
:102178004BFF071EC0F24481B54B53F82740002C93
:1021880000F043812C6006F0FE06237873B1607876
:10219800FFF7AAFE10F0010508D1002E00F03181EA
:1021A80010F0040F00F02D810A252AE10023237086
:1021B800F8B26070FFF7A4FE10F0010540F0278127
:1021C8001EB110F0040F40F0248100212046FFF7D3
:1021D8008BFF022800F0B6800027042800F01B813E
:1021E800012800F21A8104F13B00FFF7C1FEB0F5A7
:1021F800007F40F0148104F14600FFF7B9FE06465F
:1022080020B904F15400FFF7B8FE0646A66194F819
:102218004020A270531EDBB2012B00F2028106FBA4
:1022280002F894F83D90A4F80A90B9F1000F00F074
:10223800FA8009F1FF3319EA030F40F0F68004F140
:102248004100FFF795FE8246208110F00F0F40F005
:10225800EE8004F14300FFF78BFE834620B904F1BA
:102268005000FFF78AFE834604F13E00FFF780FE28
:102278000246002800F0DD8000EB080303EB1A1388
:102288009B45C0F0D880ABEB030BBBFBF9F1CB450A
:10229800C0F0D3804FF6F57081426BD94FF0030B35
:1022A80040F6F570814201D84FF0010B01F10209A7
:1022B800C4F81490E7613A4422623B44A362BBF13C
:1022C800030F5AD0BAF1000F00F0BD804244626299
:1022D800BBF1020F62D009EB490309F0010909EBD0
:1022E800530909F2FF19B6EB592FC0F0AE804FF031
:1022F800FF332361E36080232371BBF1030F50D0C8
:1023080084F800B0534A138801339BB21380E380EA
:102318002046FFF75BFE74E0002004AB03EB860366
:1023280043F8100C0136032E0ED804F130003301A7
:1023380003F5DF7318440379002BEDD00830FFF75D
:102348001CFEEAE70026EEE700260AE039462046AA
:10235800FFF7CAFE01287FF640AF0136032E3FF68D
:102368003CAF04AB03EB860353F8107C002FEDD190
:102378000320F2E74FF0020B92E704F15A00FFF74F
:10238800F7FD00285BD1BAF1000F5AD104F15C00C7
:10239800FFF7F3FD60624FEA8909A2E74FEA4909AE
:1023A8009FE704F16000FFF7E3FD0128A8D1791C3D
:1023B8002046FFF77DFE0028A2D10023237104F2F6
:1023C8002E20FFF7D5FD4AF65523984298D104F1FF
:1023D8003000FFF7D2FD204B984291D104F50570EB
:1023E800FFF7CBFD1D4B98428AD104F50670FFF725
:1023F800C4FD206104F50770FFF7BFFDE0607FE7CB
:102408000B25284605B0BDE8F08F0C25F9E7032514
:10241800F7E70A25F5E70125F3E70D25F1E70D258F
:10242800EFE70D25EDE70D25EBE70D25E9E70D2590
:10243800E7E70D25E5E70D25E3E70D25E1E70D25A0
:10244800DFE70D25DDE70D25DBE70D25D9E700BF23
:10245800C0000020E40000205252614172724161C4
:1024680070B584B0019000911646039103A8FFF758
:10247800CBFD041E1CDB104B53F8245025B1284615
:10248800FFF7A4FD00232B70019B0BB100221A70EB
:10249800019B094A42F8243063B1012E02D0002082
:1024A80004B070BD002201A96846FFF759FEF7E79E
:1024B8000B20F5E70020F3E7C00000202DE9F04FDE
:1024C8008DB009900F461646009309A8FFF79CFDAA
:1024D8000028C0F20683914B53F820300BB100223C
:1024E8001A70C4B22046FFF70BFD10F0010F40F040
:1024F800FA8210F0040F40F0F8820BAA032120465C
:10250800FFF72AFD38B90B9B2BB1B3F5004F02D862
:102518005A1E134201D001230B931EB1B6F5007F5A
:10252800C0F0E782B6F1807F00F2E582731E334087
:10253800019340F0E2824FEA5629169A520A029213
:10254800169A22F4FF7525F00105002D00F0D782B8
:102558000AAA01212046FFF7FFFC002840F0D1829B
:1025680017F0080203926DD0DDF804B00A9A5A45B4
:10257800C0F0C982A2EB0B020A927F2A40F2C58200
:10258800B6F5813F80F0C38217F0020006D007F04D
:102598000703022B59D017F0010F5CD017F0010F79
:1025A80000F0B7824FF0020A964604944A46BAF100
:1025B800030F5AD0002A7CD01746BEFBF7F340F62B
:1025C800F5718B4240F285809E1C760006F2FF165C
:1025D800760A4FF020094FF0010C0CEB0B0806EBC4
:1025E80008034B440B9CE118013964420C40E41A7F
:1025F800BAF1030F75D0264403EB0713A3EB0B03C3
:102608009E45C0F08A82AEEB0C039B1BA3EB09032B
:10261800B3FBF7F3BAF1030F66D0BAF1020F40F03B
:1026280085804FF6F5718B426BD912B97B00402B30
:1026380017D9C0B9002A40F074827A00802AB6D926
:102648000E2053E24FF03F0B90E74FF0030A9646F7
:1026580004944A46ABE74FF0030A964604944A4668
:10266800A5E71A46A3E74FF0030A9AB11746BEFB3F
:10267800F7F39E1CB60006F2FF16760AA3F57F4311
:10268800F63B27498B4200F24682DDF804904FF072
:10269800200CA2E74FEA5E441146012701E0013110
:1026A8007F00204B33F81130002BE0D0A342F6D93D
:1026B800DDE74FEA1E341146012701E001317F00B2
:1026C800194B33F81130002B3FF477AFA342F5D9FB
:1026D80073E703EB43060136760803364FF0010A29
:1026E80074E7A444A04487E74FF6F5718B4294D869
:1026F800002A40F014827A08012F3FF658AF0E20C6
:10270800F4E140F6F5718B4210D8002A40F00B82B4
:102718007A00802A7FF64BAF0E20E7E1C000002048
:10272800FFFFFE0F6C2C00085C2C0008CDF81890F9
:10273800CDF81480CDF81CC0049C9846BAF1010F5E
:1027480004D140F6F573984500F2EF814FF400721A
:102758000021DDF800904846FFF732FC0B22B6490D
:102768004846FFF723FC4FF40071CDF8009009F1BB
:102778000B00FFF70DFC009B5F73BDF81C1003F105
:102788000E00FFF705FC0123009A137402F11100F3
:10279800BAF1030F00F09C804FF40071FFF7F8FBCB
:1027A8000A99B1F5803F80F0958089B2009B03F1CA
:1027B8001300FFF7EDFBF823009A53753F2102F150
:1027C8001800FFF7E5FBFF21009B03F11A00FFF754
:1027D800DFFB5946009B03F11C00FFF7DDFBBAF154
:1027E800030F7DD0FEF776FA0146009B03F1270020
:1027F800FFF7D2FBB1B2009B03F11600FFF7C8FB4D
:102808008023009880F82430292380F8263013226A
:102818008A492B30FFF7CAFB009B03F5FF794AF67C
:1028280055214846FFF7B4FB01235A460099204634
:10283800FFF786FB002840F07A81BAF1030F7CD0BD
:102848002A460021009D2846FFF7BAFBDDF81480D0
:102858000497CDF81C90CDF820B0DDF808B0A94653
:10286800019B002B00F0A380CDF81480049FDDF8B5
:102878001C90DDF820B0BAF1030F00F0D280069E5C
:10288800059FCDF80490DDF80880DDF80090354606
:10289800464528BF45462B463A4649462046FFF757
:1028A8004FFB002840F047812F44761BEFD1DDF81D
:1028B8000490BAF1030F00F0CB800A9BB3F5803F78
:1028C80080F00D81BAF1020F00F0B4800127C0E05A
:1028D800002163E7009B03F12000FFF75DFB6AE737
:1028E800FEF7F8F90146009B03F14300FFF754FB9C
:1028F8003146009B03F12400FFF74EFB0221009BA9
:1029080003F12C00FFF748FB0121009B03F1300085
:10291800FFF73EFB0621009B03F13200FFF738FB6F
:102928008023009880F84030292380F84230132211
:1029380043494730FFF73AFB6EE701230BF10602E4
:1029480000992046FFF7FCFA4FF400720021009826
:10295800FFF736FB3B490098FFF71EFB3A49009BFF
:1029680003F5F270FFF718FB08F1FF31009B03F540
:10297800F470FFF711FB0221009B03F5F670FFF7D7
:102988000BFB4AF655214846FFF702FB01230BF1E2
:102998000702DDF8008041462046FFF7D1FA0123FF
:1029A8000BEB030241462046FFF7CAFA48E7BAF1A3
:1029B800030F22D0BAF1010F31D06FF0070148465A
:1029C800FFF7EAFA37463D465F4528BF5D462B4686
:1029D800424649462046FFF7B3FA002840F0A9804E
:1029E8004FF4007200214846FFF7EAFAA8447F1B1B
:1029F800E9D1019B0133019332E76FF007014846A3
:102A0800FFF7CAFA4FF0FF3109F10400FFF7C4FAE3
:102A18006FF0704109F10800FFF7BEFAD2E70B49E1
:102A2800CDE73E464746CDF80490DDF80880DDF84E
:102A380000902CE704270CE0282C0008482C0008FC
:102A4800342C00085252614172724161F8FFFF0054
:102A58000C27039BDBBB4FF400720021009E30461D
:102A6800FFF7AEFA4AF655214846FFF791FA0025D6
:102A78003346314686F8BE51012683F8BF6183F894
:102A8800C06183F8C15183F8C2710A9B5B4443F665
:102A9800C162B3FBF2F3FE2281F8C3219A0842F027
:102AA8003F020F4681F8C42181F8C531594607F520
:102AB800E370FFF771FA0A9907F5E570FFF76CFA0A
:102AC80033462A4639462046FFF73AFAA8BB002281
:102AD80011462046FFF740FA40B1012006E00627DC
:102AE800B7E70B2002E0032000E00A200DB0BDE8A4
:102AF800F08F1320FAE71320F8E71320F6E70E20EB
:102B0800F4E70120F2E70E20F0E70E20EEE71320AD
:102B1800ECE71320EAE70E20E8E70E20E6E70E20B0
:102B2800E4E70E20E2E70E20E0E70E20DEE70120D2
:102B3800DCE70120DAE70120D8E70120D6E700BF6B
:102B4800134B5B7A13BB10B5044603F0FF00104B20
:102B580093F809C05FFA8CFC4FF0000E03F80CE004
:102B680093F809C003EB8C0CCCF804405C7A1C4445
:102B780022725A7A541CE4B25C7230320A703A23D8
:102B88004B702F238B7081F803E010BD0120704734
:102B9800E800002008B50022FFF7D2FF08BD0000BA
:102BA8000D4885460D480E490E4A002302E0D458C8
:102BB800C4500433C4188C42F9D30B4A0B4C00237D
:102BC80001E013600432A242FBD3FFF783F9FDF75B
:102BD800FFFAFDF72FFCFEE7008000200000002030
:102BE80024000020842C000824000020F400002089
:102BF800FEE70000F8B500BFF8BC08BC9E46704769
:0C2C0800F8B500BFF8BC08BC9E46704741
:102C140000000000000000000000000001020304A6
:102C240006070809EBFE904D53444F53352E3000F0
:102C34004E4F204E414D45202020204641543332F2
:102C4400202020004E4F204E414D4520202020467C
:102C540041542020202020000100040010004000E6
:102C6400000100020000000001000200040008004E
:082C7400100020000000000028
:042C7C00E502000865
:042C8000C102000885
:102C840081050008890500089105000899050008D8
:102C9400A105000801000000010000001000000070
:042CA4000024F40014
:0400000508002BA91B
:00000001FF
